:1000000016C01DC01CC01BC01AC019C018C017C024
:1000100016C015C014C013C012C011C010C067C0F4
:1000200069C06AC06CC06DC06FC070C071C011245F
:100030001FBECFE5D1E0DEBFCDBF02D06CC0E0CFA8
:1000400080E886BD16BCBC9AC498BB9AC398B89881
:10005000B998BA98C09AC19AC29A87B5826087BD8A
:100060002FEF80E792E0215080409040E1F700C000
:10007000000007B400FEFDCF87B5846087BD80B760
:1000800080BF80B7806480BF8CB580618CBD80B735
:10009000826080BF8CB580648CBD80E88BBD80EAB7
:1000A0008DBD30E071E06CE320E4C8E3D0E318E5F7
:1000B00050E600E580E7F82E40E898E6E92EE0EA11
:1000C000DE2E86B381708727B19B8E5FB29B8C5FDB
:1000D0008317B9F3382F082E000C990BAA0BBB0B12
:1000E0008830910570F7FC01E15FFF4F09944BBD2B
:1000F000DDBCE7CFEBBC01C0FBBC4DBDE2CF0BBD0F
:1001000001C01BBD5DBDDDCFDBBD03C0CBBD01C0EC
:0A0110006BBD2DBDD6CFF894FFCFD4
:00000001FF
