:100000000EC015C014C013C012C011C010C00FC064
:100010000EC00DC00CC00BC00AC009C008C011241E
:100020001FBECFE5D2E0DEBFCDBF02D033C0E8CFE8
:1000300080E886BD16BCBC9AC498BB9AC398B89891
:10004000B998BA98C09AC19AC29A87B5826087BD9A
:100050002FEF80E792E0215080409040E1F700C010
:10006000000007B400FEFDCF87B5846087BD80B770
:1000700080BF80B7806480BF8CB580618CBD80B745
:10008000826080BF8CB580648CBD80E88BBD80EAC7
:080090008DBDFFCFF894FFCFF6
:00000001FF
